:1000000012C019C018C017C016C015C051CC13C0FB
:1000100012C011C010C00FC00EC00DC00CC00BC06C
:100020000AC009C008C011241FBECFE5D4E0DEBF5E
:10003000CDBFB9DD2FCEE4CF000EF0110150B0518D
:100040005FADB1F0515FAD1C2968517327ECF5B37A
:1000500068F051A0F3B3F5E16627EAF5F714005212
:10006000464000B0ECF8F8E427EAE7506427EAE6F7
:100070003420A0A5B130685173D0E1D1F3F5FC85EF
:100080001A00F00000114F50B026202810530051E4
:1000900000715A60144BF714574302D440D4D3294B
:1000A000E2D0E2C06C222023EAF6736D1A76F0BC2F
:1000B000C0A914D92800F0514A40F7BBC7635319AF
:1000C0001A6858054131182212050C9D6D3DBD8DF1
:1000D0005D2D067D4D1D0DADA40EBF069198F1CD91
:1000E000D7FD8A0561F9D7D7CAC5506A2807506479
:1000F00079B426182200D1506527EAFCB9A2F5F799
:100100001C77A979CD407A1461B2F5FAF6B283B3BF
:10011000D082B2506477BF29A2F5F714F8EFF2F756
:100120001CF7ECB929A3E06929E91C7AA2E069A9C6
:10013000E4DFE72800261019FDC033A5F2F286B8E7
:10014000B6410E666666666627E929E069770E277E
:10015000ECB3ED29E5B3E4C0D485B629E927EBFB80
:10016000E0697721F1C0D485B84133D485B6FAF976
:1001700029E8F127EBFBE06977351A436DC1686820
:100180006868686829E0794AE4E5C0686829E9BDDB
:10019000E07953C0DEB9AD6868BDA9F8F1B929E9C5
:1001A000BDE0A91C61C0686829EEF8F3C168686801
:1001B0006829EEF6C127EEF5C166666627E6C066D9
:1001C00066D14181D84181A4418227EEF5FAF6E655
:1001D000C0D485B8DEB941A2DEB9BD6829DFEB79AC
:1001E000A2F3C1ADFBC1ADF8BDF3C1D795C1DC84AD
:1001F000C1A5F6B5F3C1A4F6C1D485B829ABE5C055
:1002000029EDBBC07BCD6AC0DD9BF3D09AC142D340
:1002100000429442A342AA42AE42B342B942CA4209
:10022000DE42E742EC424644005180518151812A2E
:100230000040006F6F6F6F6F6FBFF4BF7F10DA51B8
:100240004A2EFFBADFB929E0422C7F17DFBFA54253
:1002500026D18FF71425A4BFBEF6F3DEF64226A4FE
:10026000BE29EDBAEDBB112CD2BDECF6F7E150B0D2
:10027000686BABB951A2F71437113FF0E1E27D533F
:100280002A0C2E00D8114BE150B07B4BC0506AB8FD
:10029000DD9FF11C5FBADF426127E97777AA1C680E
:1002A000528FAF528AAE528A196ED229E150B242B1
:1002B0003F528AAA148397F11C83DA528AA79BF7CC
:1002C0001456425C9CF11C8FFAD1F5F54065A4BD33
:1002D000264027EE1CA1D8E6F0514A41C6510A51EA
:1002E000465149C0D3B5FAC1D1B3BB42C252F9EFAE
:1002F000E542C252F9DD9BF182BAF7BA93BBF3BA79
:1003000099BAF1C052F9A38B82BBF7BAC0D485B6B3
:1003100027ECB229EC82F6C152D6F76627E4DFBD9E
:10032000C029ECF4E4C0DB8D1AF16ED029EBFBE0C0
:1003300079F1C027EDB229EDB3C032C030404BEDAA
:100340006C14750ED9FCA70FFB8D040287EFFC6DB2
:100350000F7B0F76468DA23C48A073E19E329A3601
:10036000E5515134292151A93F52A72952CAA72248
:1003700053CF3CDDA724FF85F15DCE73DD5DA74043
:100380008D03E3E50E49525E5AA956AC4D21A751A3
:10039000A040CF3C5E5ADDA75686F3FECACAA767C7
:1003A000FE7B6F90764702A71C040CA76A0DC2B1B2
:1003B00010B47B6E9EDFCF9ACE84CA5FA77CDD53DC
:1003C0009A7CA73C6C667566D9A7986C987597A7B8
:1003D0009882AE7BB1AA77A3FDEBB4A8F1E99A9E0F
:1003E000A73CDBABFCC603BCB0E7D4B71E97BD315E
:1003F0003C31BD1E2CBC010DBFB4FFB7AC8AEF82EF
:1004000049D94AFC4A7FF16CD575D30B46FCEFFD08
:10041000F1D7A9DF539AE35FF3BC5FE7F374E8A772
:10042000EE00CACEEDDD5FC2B7DAF3FD020E030CBB
:10043000040DF109FA44F109FAF12028110650B02F
:100440002620281032F054507111601402F7140E57
:100450003044020000000000000000000000000026
:10046000000051A753613E6563449C5B556A365852
:100470007A5D415F85579835A95B9F7A9636599387
:100480002E0000000000000000003341FE41484102
:100490004A6868415341044134412141A2419ABD17
:1004A00029EDBBC02E6DABB7BAF6ABF68EBBF7BA73
:1004B000B7F6F3C1AFB9FAD029EBFBE0797DC0AF55
:1004C000B9F329E997128ED9E07987F0C07B966A53
:1004D000FAC1AFF8BFC1415F0027E62040260040C7
:1004E0004B41024104000000000000000000000039
:1004F00000000000000000000000000000000000FC
:1005000000000000000000000000000000000000EB
:1005100000000000000000000000000000000000DB
:1005200000000000000000000000000000000000CB
:1005300000000000000000000000FFFFFFFFFFFFC1
:10054000FFFFFFFFFFFFFFFFFFFFFFFFFFFFFFFFBB
:10055000FFFFFFFFFFFFFFFFFFFFFFFFFFFFFFFFAB
:10056000FFFFFFFFFFFFFFFFFFFFFFFFFFFFFFFF9B
:10057000FFFFFFFFFFFFFFFFFFFFFFFFFFFFFFFF8B
:100E3000FFFFFFFFFFFFFFFFFFFFBFBBAEBBE09A5F
:100E40008DB30895FADF891739F0BFBBAEBB9DBBE8
:100E5000E29AE19AE199FECF0895C0914C00D091B9
:100E60004D00089500904C000C1A00904D000D0AA2
:100E7000CAF30895EC27CE27EC27FD27DF27FD27AF
:100E80000895303132333435363738392E2E2D002F
:100E9000012B2D783A03045E3D0225435200232A9C
:100EA0004905060304544B4507434D006362524213
:100EB000615141605040432331302221727301FF60
:100EC0008081828384858690889891110302102006
:100ED000710070FF803009F05BC08091B103909386
:100EE000B103892781FF31C091FF2FC00090AB0370
:100EF0001090AC036090AD0366941794079440F48F
:100F0000E091A803FF27E057F14FE491E093E80355
:100F100066941794079440F4E091A803FF27E256E3
:100F2000F14FE491E093E903E091A803FF27EE5726
:100F3000F14F649016940794E9EDF3E0169407944A
:100F400008F460823196E83EC9F783FF089593FF65
:100F50000895809B08C0E9EDF3E08191803219F497
:100F6000EA3ED9F70895E9EDF3E08081803229F473
:100F700081818193E93EE1F705C08785803211F4D4
:100F80008089878755D63092EB033092EA03089523
:100F90008130E9F7892F2DC6803061F58091AE034D
:100FA0009093AE03892780FF0FC090FF0DC0E92FFB
:100FB000E695E695F091A903FF1FF093A903F09140
:100FC000AA03FF1FF093AA0382FF089592FF0895DA
:100FD00096959695F091AB03FF1FF093AB03F091BC
:100FE000AC03FF1FF093AC03F091AD03FF1FF09330
:100FF000AD030895843029F40398917009F083C5F6
:1010000088C5853041F403988091B8038823892FDF
:1010100009F0805C67C5863061F7039904C0039AC4
:101020009093B203089503988091B2038295892B1F
:101030002AC58130A1F59091AA0390FF2AC091FFA3
:101040002BC0D7D48832C8F5E82FFF27E455F14FDD
:1010500084918F3F91F1803890F4032C982F807FFA
:1010600019F0000C8051E9F78091A903802129F53E
:1010700081E0937019F0880F9A95E9F70895803907
:1010800020F48F708093AF0318C08F708093B003EB
:1010900014C08091AF0308958091B0030895823009
:1010A00049F48827809B88E09091A803992309F44C
:1010B00081600895833009F4A2C5882708958F932D
:1010C0001A9559F415E0232541F08091A8038395E2
:1010D0008D3008F088278093A8038F910895000130
:1010E000020F030F0F0F040F0F0F0F0F0F0F8E7054
:1010F000E82FEF70E83010F40299E05FFF27E05A24
:10110000FF4F0895BE3020F0BE5097DEB25F05C09D
:10111000EAE3F0E0EA0FFB1F84911196BF70CA5A10
:10112000DF4F039509F4CBDF9DCE8FE0FA01F53058
:1011300068F4F695E79530F0E857FF4F8081829587
:101140008F700895E857FF4F80818F700895FA01DE
:10115000F53090F4F695E79548F0E857FF4F808119
:101160008F708295862B829580833FC2E857FF4F10
:101170008081807F862B808338C26FE0FA01F53052
:10118000A0F48370E07FF695E795F695E795E82B58
:10119000F695E79530F0E85FFC4F608162956F70DF
:1011A00024C2E85FFC4F60816F701FC2FA01F53006
:1011B000C8F48370E07FF695E795F695E795E82B00
:1011C000F695E79548F0E85FFC4F80818F70829537
:1011D000862B8295808309C2E85FFC4F8081807FE7
:1011E000862B808302C2652F00C282DF8081682B3C
:1011F000FCC17EDF80816823F8C10298F6C1029AA3
:10120000F4C19927869510F420FF932D869510F44C
:1012100070FD932D869518F4662309F4932D869519
:1012200008F493256FDF992309F0A82FDEC160DF52
:101230003F0168DFF301982F1BC059DF40814295C1
:101240008181482BD2C18F933D01029905C0A091A5
:1012500060008091610004C0A091700080917100D5
:10126000A295A82B4FDF982FD3018F9141DF892FB3
:1012700082958F7081939F709083B7C138DFA08172
:10128000A2958181A82BB1C1982F3CDFB92FBF70E7
:10129000A82FABC1982F36DFE32FEE0FFF27E858BA
:1012A000FF4FA193B08333953770DC01BF709DC1B0
:1012B0001FDF808183958F70808397C119DF9081B4
:1012C00093959F7090831EDF992309F0A82F8DC1FD
:1012D0000FDF80813CC00CDF80812AC009DF608184
:1012E00084C106DF80816083682F7FC1682F6F70A3
:1012F0003A953770E32FEE0FFF27E858FF4FA19183
:10130000B08173C1682F6F7070C1CA0182958695D4
:10131000869583709770990F990F892B962FDADD38
:1013200064C1842F82958F70962F36DE5EC1FDDEFC
:101330008525680F7325670F22C0F7DE682F55C11A
:10134000842F82958F7075DE682F4FC1EEDE680F97
:10135000670F15C0639513C0732547C1652545C147
:101360007695661F0CC07295672B77276695771F59
:101370003CC177EF775F672F70E037C1615F70E046
:10138000603110F06F7071E030C1772311F46A3072
:10139000D8F36A5FF5CFEEEDF0E1E60FF21D649150
:1013A00024C1562F577021C1EA15EA15EA15E61136
:1013B000EA11EA11F211F211EA15EA15FA11FE1119
:1013C000EA15EA15EA15EA150212021202120212D1
:1013D000021202120212021202120212021202126D
:1013E00002120212021202122E123A122E123A1295
:1013F0002E123A122E123A122E123A122E123A12BD
:101400002E123A122E123A1246127C1246127C12F8
:1014100046127C1246127C1246127C1246127C1234
:1014200046127C1246127C12881288128812881288
:1014300088128812881288128812881288128812DC
:10144000881288128812881294129412941294129C
:10145000941294129412941294129412941294125C
:101460009412941294129412B012B012B012B012DC
:10147000B012B012B012B012B012B012B012B0125C
:10148000B012B012B012B012BC12BC12BC12BC121C
:10149000BC12BC12BC12BC12BC12BC12BC12BC12DC
:1014A000BC12BC12BC12BC12D012D012D012D0127C
:1014B000D012D012D012D012D012D012D012D0121C
:1014C000D012D012D012D012D612D612D612D612F4
:1014D000D612D612D612D612D612D612D612D612CC
:1014E000D612D612D612D612DC12DC12DC12DC12A4
:1014F000DC12DC12DC12DC12DC12DC12DC12DC127C
:10150000DC12DC12DC12DC12E212E212E212E21253
:10151000E212E212E212E212E212E212E212E2122B
:10152000E212E212E212E212EC12EC12EC12EC12F3
:10153000EC12EC12EC12EC12EC12EC12EC12EC12BB
:10154000EC12EC12EC12EC12041304130413041347
:1015500004130413041304130413041304130413D3
:1015600004130413041304134E110A132213EA156F
:10157000AC11AC11AC11AC112E133A1340134C1337
:101580007A117A117A117A1172137813541358134D
:101590005C136013661376137C13741386138A131B
:1015A0009613A213EA15EA15B4D2D1D2ACD2CFD297
:1015B000E0E6F0E093E02192E83AF907E1F76627E8
:1015C00077274092A9034092AA034092AB0340922E
:1015D000AC034092AD0388E08093AF032092B00348
:1015E000552744273327222715E08CDDE8EAF3E16D
:1015F000E80FF21DE80FF21D0590F491E02DF6952D
:10160000E79509944E4F504A434E46494D46494E40
:101610004A554E4A4D53494E4349535A4144445307
:1016200055424C442058434842424C4C444D53523E
:10163000434A494E4E4F50484C544242534C4352F9
:101640004F52344F5235414E36414E37444230446A
:10165000423153423053423145494E44494E525033
:101660004D2D2D2D57524D574D5057525257504DCD
:1016700057523057523157523257523353424D52CC
:10168000444D52445241444D5244305244315244EC
:1016900032524433434C42434C43494143434D430C
:1016A000434D4152414C52415254434344414354AF
:1016B00043535354434441414B425044434C2D2DDA
:1016C0002D2D2D2DBE3020F0BE50B7DBB25F08951A
:1016D000EAE3F0E0EA0FFB1F84910895982F987FCA
:1016E000903259F0907F903141F0903431F0903544
:1016F00021F0903711F091E0089592E00895B03113
:1017000018F4E0DF2FD202C017D216D21196089536
:1017100000D21297F4DF10D2F2DF0ED28BE5B3D1F4
:10172000EEDF8DE5B0D108D2EADF06D2E8DF13970D
:1017300008958F70E80FF21D880FE80FF21D859154
:10174000A2D18591A0D184919EC1DDD1CD0106D2D7
:10175000F3D1B8DF07D2F0D1E4E9F6E1803F40F4FD
:10176000E4E6F6E1803E20F4E4E3F6E1803110F4B3
:10177000E0DFEDC1982F82958F70823011F08330B9
:1017800011F490FD845F9F93E4E0F6E1D2DFD4D1C1
:101790008F91EBD1DCC1AA27BB27BADFD6DF15D1E9
:1017A000F1F3803119F41196BF70F7CF813111F444
:1017B0001197FACF8031B8F4BE3088F3982F84E4C3
:1017C00091D1892FD2D18FE55ED11FD1803130F4F4
:1017D0009295982BBE5036DBB25FE5CF8F9398DFA2
:1017E000B4DF8F91DECF8231D1F480E47BD18FE5FD
:1017F0004AD149D148D180E475D107D1803170F701
:10180000682EB3D102D1803148F7982FAED1FDD0E8
:10181000803120F79295982BA92FB62DBECF843218
:1018200059F4BE3028F16A2EBE509FEF0BDBAF3F5C
:1018300089F0982FA395FACF853279F4BE30C0F0A5
:101840006A2EBE50AFEF9FEFFDDAA61521F0982F5C
:10185000AA95FACFA62DB25FA0CF843130F08432A2
:1018600020F48451B82FAA279FCE863209F49CCE4B
:1018700096CF070401000805020A0906030B0F0EA4
:101880000D0C13121110EDD18CEFB49B8B5FB29B3A
:101890008A5FB69B895F999B885F8C3F39F0EE2306
:1018A00021F4E82FEF0F853008F0EFEFFC5F08958B
:1018B0008F938FB78F93EF93FF932F92222487B349
:1018C0008F7B87BB88B3806488BBEE27FF27BB9ADA
:1018D000DADFBB98B99AD7DFB998BD9AD4DFBD9843
:1018E000A09AD1DFA098A29ACEDFA29887B3806495
:1018F00087BBEA9582F0FF27EE58F74E8491F0916E
:10190000B303F81721F08093B5038093B3038AE003
:101910008093B4030AC08091B4038A9532F0809317
:10192000B40319F48FEF8093B30382E0F091EC03DA
:10193000E091ED03E03181F4FF2339F0E091EB0316
:10194000EE23F9F02092EB0306C0E091EA03EE23C8
:10195000C1F02092EA03EFEFE395E093ED0331F459
:10196000FF2311F0D0D013C0D4D011C0FF2309F051
:10197000E05FFF27E854FC4F8F93808184D08F91E4
:1019800006C0F091EC03F395F170F093EC038A95A7
:1019900069F62F90FF91EF918F918FBF8F911895DE
:1019A00020924F0081E080934E0020924D002092C3
:1019B0004C00809159008061809359004092B5039A
:1019C0004092B3034092B60308958091B503841505
:1019D00079F04092B503833139F4019902C0019A3C
:1019E00006C0019887E203C001998C5E01988415B6
:1019F0000895EBDF39F40090B403002019F08091D2
:101A0000B60308958093B6030895DFDFF1F30895D8
:101A10001F10080408101F0000040A110A04000027
:101A200003021A0C0C0C08081B151100040E04000C
:101A30001B151100000E00000A0A0A0A0A0A0A0011
:101A400015151515151515001E101C101E0502057F
:101A5000F89496989598C798C69880FD969A81FDB7
:101A6000959A82FDC79A83FDC69A979AEED0979869
:101A7000ECD078940895C0988295EADF8295E8DFEB
:101A8000F0C0C09AF9CF8F93FCDF8091B7038395A4
:101A90008093B7038F91089583E0DADF85E0EFC08C
:101AA000979884E6ECD0C098F7DFF6DFF5DF82E0A8
:101AB000F4DF88E2E0DF88E0DEDF81E010D086E05E
:101AC000DADF8CE0D8DFE0E1FAE180E4D4DF90E413
:101AD0008591D7DF9A95E1F72092B70382E0CBDFBB
:101AE00085E0CDC08F939F939927803408F091E0D3
:101AF0009093B803982F9F739093B7038068BBDFD0
:101B00009F918F9108958F9381E08093B80380EC2B
:101B100004C08F932092B80380E82092B703ABDF14
:101B20008F910895B0DF85918823E1F70895ABDFA9
:101B300081918823E1F708958F9380E2A4DF8F914C
:101B40000895FADF9091B7039817D8F308958F930B
:101B50009F9380E1F7DF9F918F9108958F93892F55
:101B600004D08F91829501D082958F938F708A30A7
:101B700008F0895F805D87DF8F910895203E3E3EAB
:101B800020415434303034203C3C3C20000084E17F
:101B900088BB81EC87BB8AE385BB24BA81E082BB2A
:101BA0008EEF81BB089522243324339444244A9435
:101BB0008FE0582E2FBE20B8E0E6F0E094E02192AE
:101BC000E036F907E1F78FE594E09EBF8DBFDFDFD8
:101BD00067DF1FD026D028D080E18093ED03E0DEC0
:101BE000789497DFECE7FBE19EDF46D092DFAFDF32
:101BF000D2CD880F92B3917E982B92BB08958827FF
:101C00009D9981609B9982609C998460809988608D
:101C10000895E9EBF3E080E190E291938A95E9F78A
:101C20000895E9ECF3E0F7CFE9EDF3E081E1F4CFDB
:101C3000E9EBF3E090E28089808380A1808B90A320
:101C40003196E93CC1F790A308958F9385E003C0D6
:101C50008F938DE000C000C000C08A95E9F78F9196
:101C600008958F938DE5F7CF8F938DE9F4CF8AE0B8
:101C700006C084E604C002D001D000D08AEF8F9362
:101C80009F939AE0F1DF9A95E9F78A95D1F79F91B2
:081C90008F910895F894FFCF35
:00000001FF
